:100000000C9472000C9493000C9493000C94930045
:100010000C9493000C9493000C9493000C94930014
:100020000C9493000C9493000C9493000C94930004
:100030000C9493000C9493000C9493000C949300F4
:100040000C9493000C9442010C9493000C94930034
:100050000C9493000C9493000C9493000C949300D4
:100060000C9493000C9493000C9493000C949300C4
:100070000C9493000C9493000C9493000C949300B4
:100080000C9493000C9493000C9493000C949300A4
:100090000C9493000C9493000C9493000C94930094
:1000A0000C9493000C9493000C9493000C94930084
:1000B0000C9493000C9493000C9493000C94930074
:1000C0000C9493000C9493000C9493000C94930064
:1000D0000C9493000C9493000C9493000C94930054
:1000E0000C94930011241FBECFEFD1E2DEBFCDBF31
:1000F00000E00CBF12E0A0E0B2E0E0EBFCE000E0CA
:100100000BBF02C007900D92A830B107D9F71BE0D2
:10011000A8E0B2E001C01D92AB39B107E1F70E943F
:100120002B060C9456060C940000FFCFFF93FFB7EC
:10013000F894FF93EF93DF93CF93BF93AF939F9385
:100140008F937F936F935F934F933F932F931F935F
:100150000F93FF92EF92DF92CF92BF92AF929F9256
:100160008F927F926F925F924F923F922F921F9247
:100170000F928DB79EB790930F0280930E02E0917D
:100180000802F0910902E050FF4F808191819EBFEB
:100190008DBF0F901F902F903F904F905F906F906A
:1001A0007F908F909F90AF90BF90CF90DF90EF9017
:1001B000FF900F911F912F913F914F915F916F9100
:1001C0007F918F919F91AF91BF91CF91DF91EF91EF
:1001D000FF91FFBFFF910895FF93FFB7F894FF933E
:1001E000EF93DF93CF93BF93AF939F938F937F93BF
:1001F0006F935F934F933F932F931F930F93FF92B0
:10020000EF92DF92CF92BF92AF929F928F927F92A6
:100210006F925F924F923F922F921F920F92E091B6
:100220000802F09109028DB79EB7E050FF4F91830D
:10023000808380910E0290910F029EBF8DBF0F9020
:100240001F902F903F904F905F906F907F908F9076
:100250009F90AF90BF90CF90DF90EF90FF900F9165
:100260001F912F913F914F915F916F917F918F914E
:100270009F91AF91BF91CF91DF91EF91FF91FFBF20
:10028000FF910895FF93FFB7F894F068FF93EF9301
:10029000DF93CF93BF93AF939F938F937F936F938E
:1002A0005F934F933F932F931F930F93FF92EF9280
:1002B000DF92CF92BF92AF929F928F927F926F9276
:1002C0005F924F923F922F921F920F92E0910802FD
:1002D000F09109028DB79EB7E050FF4F9183808364
:1002E00080910E0290910F029EBF8DBF81E090E041
:1002F00090936B0B80936A0BE8E8F0E0808191812A
:10030000805F984D9183808380910E0290910F02BF
:100310009EBF8DBF0F901F902F903F904F905F908A
:100320006F907F908F909F90AF90BF90CF90DF9015
:10033000EF90FF900F911F912F913F914F915F91FF
:100340006F917F918F919F91AF91BF91CF91DF91ED
:10035000EF91FF91FFBFFF910895F89480E88AB96B
:1003600080910002863008F04DC0709100027F5FDE
:10037000F0E840E951E0FBB960E02AEF30E0CA0163
:100380000197F1F721503040D1F76F5F6436A9F73C
:100390001BB860E02AEF30E0CA010197F1F7215065
:1003A0003040D1F76F5F6832A9F77723F1F0E0E0D2
:1003B000FBB960E02AEF30E0CA010197F1F7215064
:1003C0003040D1F76F5F6A30A9F71BB860E02AEFC1
:1003D00030E0CA010197F1F721503040D1F76F5F4B
:1003E0006A30A9F7EF5FE71718F360E02AEF30E013
:1003F000CA010197F1F721503040D1F76F5F6431A6
:10040000A9F7B9CF709100027550B2CFCF93DF93A7
:10041000C091740BD091750B209709F4D8C08091CE
:10042000700B823009F47DC08091700B823009F42A
:1004300069C08091700B823009F452C08091700BBA
:10044000882309F041C0C0E6DAE0DE01A150BF4FC9
:10045000FD01B597128280E880A380916C0B90918A
:100460006D0B92A380916C0B90916D0B83A381E136
:1004700096E094A38C93C050DF4FF983E8832396D2
:1004800082E090E08993999380916E0B90916F0B2D
:10049000899399938091700B88838091710B259734
:1004A0008883C250D1408091700B823009F480C0A3
:1004B000833009F45FC0813009F442C021E030E0AC
:1004C000C901DF91CF910895FE01E85FFE4F808161
:1004D00091819093750B8093740B11821082B5CF2C
:1004E000E091710BF0E0EE0FFF1FE058F44F8081B8
:1004F0009181892B09F4A2CF83E0809300020E94AE
:10050000AD019CCFE091710BF0E0EE56F44F80818D
:10051000882309F08ECF84E0809300020E94AD0111
:1005200088CF8091710B882329F08091710B8930DD
:1005300008F47ACF81E0809300020E94AD0174CF6D
:10054000C85FDE4F19821882C850D1408091780B65
:100550009091790B892B09F44BC0E0917A0BF091C3
:100560007B0BE85FFE4FD183C083D0937B0BC0939E
:100570007A0BA4CFC85FDE4F19821882C850D140D1
:1005800080917C0B90917D0B892B39F1E0917E0B52
:10059000F0917F0BE85FFE4FD183C083D0937F0B38
:1005A000C0937E0B21E030E0C901DF91CF91089527
:1005B000E091710BF0E0EE0FFF1FE058F44FD18394
:1005C000C08321E030E0C901DF91CF91089520E0A0
:1005D00030E0C901DF91CF910895D0937D0BC09396
:1005E0007C0BD0937F0BC0937E0B21E030E068CF73
:1005F000D093790BC093780BD0937B0BC0937A0B7D
:1006000021E030E05DCF3F924F925F926F927F92F8
:100610008F929F92AF92BF92CF92DF92EF92FF9212
:100620000F931F93CF93DF9380918100826080931B
:100630008100A0900502B09006022501440C551CD3
:1006400041145104F1F010E0E0E0F0E001E00AC0F4
:10065000F0E0EE56F44F00831E5FE12FF0E0E4156A
:10066000F50578F4ED5FFD4FE081E93088F31092F5
:1006700000020E94AD011E5FE12FF0E0E415F505D8
:1006800088F3E3E1F3E0A0E8BBE0118210821D9261
:100690001D92CF01079696838583E65FFE4F8AE021
:1006A000E935F80791F71682158200E112E0109300
:1006B000750B0093740B86E599E09093770B80930C
:1006C000760B85E990E090936D0B80936C0B109204
:1006D000700B0E94060280E396E090936D0B80936E
:1006E0006C0B83E08093700B0E940602109309024A
:1006F0000093080281E090E0909314038093130329
:10070000E0917C0BF0917D0B309751F0E85FFE4F4C
:100710008081918190937D0B80937C0B118210825C
:10072000A114B10421F08091040280930A02809107
:100730006F00826080936F008091840090918500AB
:10074000805F984D909389008093880082E086BBFB
:100750000091010210910202E0900C02F0900D0253
:1007600090900B02A0910802B0910902E1E0CE2E18
:10077000D12C72E0672E712C6AE0862E58E0352E5F
:1007800011C0209739F0219709F452C080920002DD
:100790000E94AD01A0910802B091090210926B0B6A
:1007A00010926A0BAD5FBE4F8D919C911197A35033
:1007B000B1400197C9F120917C0B30917D0B21153F
:1007C000310509F41EC1F901E85FFE4F8081918176
:1007D00090937D0B80937C0B1182108230930902E1
:1007E00020930802E0910802F0910902ED5FFE4FAC
:1007F000D182C0820E949600C0916A0BD0916B0B8F
:10080000C230D10509F47FC0C330D10508F4B9CF97
:10081000C430D10509F4D8C0C430D10508F4A1C052
:10082000259709F0B3CFB6CFA017B10719F7C3CFFB
:10083000A114B10409F4E0C080910A0281508093B0
:100840000A0280910A02882309F0D6C0A09108020A
:10085000B0910902109741F0A95FBE4F8C91A7504B
:10086000B140823009F46CC182E090E0E80EF91EDC
:10087000E414F50410F0EE24FF24F701ED5FFD4FC2
:10088000818180930A02E081EE2309F444C1F0E003
:10089000EE0FFF1FE058F44F80819181892B09F4FE
:1008A0003AC19924A95FBE4F8C91A750B1408130C5
:1008B00009F074CFFD01ED5FFE4F808191810197BA
:1008C00009F06CCF71826082A85FBE4F11961C92B6
:1008D0001E92A850B1408091780B9091790B892B92
:1008E00009F45DC1E0917A0BF0917B0BE85FFE4F5C
:1008F000B183A083B0937B0BA0937A0BA0910802E5
:10090000B09109024BCF0E9406029093730B809323
:10091000720B8091720B9091730B892B09F43ACF73
:100920008091700B833009F4E2C0A0910802B0916D
:100930000902A95FBE4F8C91A750B140813009F0E8
:100940002DCF8091700B823009F406C1AD5FBE4F90
:100950008D919C911197A350B140029709F01ECF41
:10096000B3CFA0910802B09109020A171B0709F43E
:1009700015CFAD5FBE4F11961C921E9214968C91AE
:10098000A750B140823009F46CC0A85FBE4F1196E9
:100990001C921E92A850B1408091740B9091750BDF
:1009A000892B09F4BBC0E091760BF091770BE85FDF
:1009B000FE4FB183A083B093770BA093760BA091E9
:1009C0000802B0910902EACEA0910802B091090292
:1009D000ED01A95FBE4F8C91A750B140823009F460
:1009E00083C0833009F465C0813009F447C0CD5F0E
:1009F000DE4F79826882D2CEA0910802B0910902BE
:100A000051CF9920B1F4A114B10499F0F701ED5F31
:100A1000FD4FE081F0E0EE0FFF1FE058F44F019032
:100A2000F081E02D309729F0F0930902E09308025D
:100A3000D9CE2091780B3091790B2115310509F42D
:100A40007AC0F901E85FFE4F808191819093790B24
:100A50008093780B11821082309309022093080250
:100A6000C1CEAE5FBE4FEC91A250B140F0E0EE0FB0
:100A7000FF1FE058F44F1182108287CFA85FBE4F4E
:100A800011961C921E92A850B1408091780B9091C3
:100A9000790B892B09F471C0E0917A0BF0917B0BF3
:100AA000E85FFE4FB183A083B0937B0BA0937A0BDA
:100AB0009ECFA85FBE4F11961C921E92A850B140C7
:100AC00080917C0B90917D0B892B09F45FC0E091A4
:100AD0007E0BF0917F0BE85FFE4FB183A083B09354
:100AE0007F0BA0937E0B83CF9924939480CFA0910A
:100AF0000802B0910902A95FBE4F8C91A750B14086
:100B0000833009F44BCEAD5FBE4F1196DC93CE938C
:100B1000A350B1400ECF99249394C4CEB093750BDB
:100B2000A093740BB093770BA093760BA09108025F
:100B3000B091090233CE109309020093080252CEFD
:100B4000992009F091CE309200020E94AD01A0914F
:100B50000802B091090288CE8091710BF701ED5F18
:100B6000FD4F9081981709F0F1CEAD5FBE4F119601
:100B70007C926E92A350B140A7CEB093790BA09314
:100B8000780BB0937B0BA0937A0B31CFB0937D0B96
:100B9000A0937C0BB0937F0BA0937E0B28CFB093D8
:100BA000790BA093780BB0937B0BA0937A0BA09159
:100BB0000802B0910902F2CD1F931FB7F8949093E9
:100BC0006D0B80936C0B70936F0B60936E0B409367
:100BD000700B2093710B82E090E090936B0B8093ED
:100BE0006A0B0E94EC002091720B3091730B1FBFB7
:100BF000C9011F910895DF93CF930F92CDB7DEB750
:100C00008FB78983F89484E090E090936B0B809386
:100C10006A0B0E94EC0089818FBF0F90CF91DF910A
:100C200008951F931FB7F89483E090E090936B0BA7
:100C300080936A0B0E94EC001FBF1F9108958FB72D
:100C4000F8948FBFE0910802F0910902EB5FFE4F2C
:100C50008081918108950E94030380E090E00895CF
:100C60008DE396E060E070E042E050E021E030E0AB
:100C70000E94DC0580E090E00895CF93DF9380E848
:100C800084B920E533ECC0E9D1E02115310539F410
:100C900085B1805885B90E94FB0520E533ECCE0173
:100CA0000197F1F721503040D1F7F2CFF894FFCF00
:080CB00006600A01FF010000CB
:00000001FF
