:100000000C9472000C9493000C9493000C94930045
:100010000C9493000C9493000C9493000C94930014
:100020000C9493000C9493000C9493000C94930004
:100030000C9493000C9493000C9493000C949300F4
:100040000C9493000C9489010C9493000C949300ED
:100050000C9493000C9493000C9493000C949300D4
:100060000C9493000C9493000C9493000C949300C4
:100070000C9493000C9493000C9493000C949300B4
:100080000C9450090C9493000C9493000C949300DE
:100090000C9493000C9493000C9493000C94930094
:1000A0000C9493000C9493000C9493000C94930084
:1000B0000C9493000C9493000C9493000C94930074
:1000C0000C9493000C9493000C9493000C94930064
:1000D0000C9493000C9493000C9493000C94930054
:1000E0000C94930011241FBECFEFD1E2DEBFCDBF31
:1000F00000E00CBF12E0A0E0B2E0EAE8F3E100E0CB
:100100000BBF02C007900D92A430B107D9F71EE0D3
:10011000A4E0B2E001C01D92AF31B107E1F70E9447
:100120000E090C94C3090C9400001092C50087E6D8
:100130008093C40088E18093C1008EE08093C20068
:100140000895982F8091C00085FFFCCF9093C60042
:100150000895AC0161157105C1F020E030E090E236
:10016000FA01E20FF31FE0818091C00085FFFCCF10
:10017000E093C6008091C00085FFFCCF9093C6003D
:100180002F5F3F4F2617370758F38091C00085FF38
:10019000FCCF8DE08093C6008091C00085FFFCCF2E
:1001A0008AE08093C6000895FFCFFF93FCB7FF93CA
:1001B000FFB7F894FF93EF93DF93CF93BF93AF9381
:1001C0009F938F937F936F935F934F933F932F935F
:1001D0001F930F93FF92EF92DF92CF92BF92AF9255
:1001E0009F928F927F926F925F924F923F922F9247
:1001F0001F920F928DB79EB790934A048093490443
:10020000E0910402F0910502E050FF4F808191815E
:100210009EBF8DBF0F901F902F903F904F905F908B
:100220006F907F908F909F90AF90BF90CF90DF9016
:10023000EF90FF900F911F912F913F914F915F9100
:100240006F917F918F919F91AF91BF91CF91DF91EE
:10025000EF91FF91FFBFFF91FCBFFF910895FF93C6
:10026000FCB7FF93FFB7F894FF93EF93DF93CF931F
:10027000BF93AF939F938F937F936F935F934F93AE
:100280003F932F931F930F93FF92EF92DF92CF92A2
:10029000BF92AF929F928F927F926F925F924F9296
:1002A0003F922F921F920F92E0910402F09105026B
:1002B0008DB79EB7E050FF4F9183808380914904B2
:1002C00090914A049EBF8DBF0F901F902F903F903A
:1002D0004F905F906F907F908F909F90AF90BF9066
:1002E000CF90DF90EF90FF900F911F912F913F9152
:1002F0004F915F916F917F918F919F91AF91BF913E
:10030000CF91DF91EF91FF91FFBFFF91FCBFFF9174
:100310000895FF93FCB7FF93FFB7F894F068FF933D
:10032000EF93DF93CF93BF93AF939F938F937F937D
:100330006F935F934F933F932F931F930F93FF926E
:10034000EF92DF92CF92BF92AF929F928F927F9265
:100350006F925F924F923F922F921F920F92E09175
:100360000402F09105028DB79EB7E050FF4F9183D4
:1003700080838091490490914A049EBF8DBF81E0A3
:1003800090E09093EE0D8093ED0DE8E8F0E0808131
:100390009181805F984D9183808380910D0290912F
:1003A0000E02019690930E0280930D0280918400BC
:1003B000909185009093100280930F0280914904E0
:1003C00090914A049EBF8DBF0F901F902F903F9039
:1003D0004F905F906F907F908F909F90AF90BF9065
:1003E000CF90DF90EF90FF900F911F912F913F9151
:1003F0004F915F916F917F918F919F91AF91BF913D
:10040000CF91DF91EF91FF91FFBFFF91FCBFFF9173
:1004100008951F931FB7F8949093F00D8093EF0DFC
:100420007093F20D6093F10D4093F30D2093F40D52
:1004300082E090E09093EE0D8093ED0D0E942F01ED
:100440002091FB0D3091FC0D1FBFC9011F91089534
:10045000DF93CF930F92CDB7DEB78FB78983F89430
:1004600084E090E09093EE0D8093ED0D0E942F01BB
:1004700089818FBF0F90CF91DF9108951F931FB790
:10048000F89483E090E09093EE0D8093ED0D0E9440
:100490002F011FBF1F9108958FB7F8948FBFE09170
:1004A0000402F0910502EB5FFE4F80819181089577
:1004B000809184009091850020910F02309110026C
:1004C000821B930B60ED77E00E94AF0920910D0233
:1004D00030910E02C901880F991F880F991F820F52
:1004E000931F680F791FCB010895FF920F931F93FD
:1004F000FFB6F8949093F00D8093EF0D7093F20D8A
:100500006093F10D82E08093F30D5093F60D4093CC
:10051000F50D3093F80D2093F70D1093FA0D00931D
:10052000F90D82E090E09093EE0D8093ED0D0E9426
:100530002F018091FB0D9091FC0DFFBE1F910F913B
:10054000FF9008951F931FB7F8949093F00D809338
:10055000EF0D7093F20D6093F10D83E08093F30D36
:1005600082E090E09093EE0D8093ED0D0E942F01BC
:100570008091FB0D9091FC0D1FBF1F9108951F935B
:100580001FB7F8949093F00D8093EF0D7093F20DD8
:100590006093F10D81E08093F30D82E090E0909301
:1005A000EE0D8093ED0D0E942F018091FB0D909137
:1005B000FC0D1FBF1F910895E1E0F1E010828081E2
:1005C0008064808380818062808380818061808379
:1005D0008081886080830895982F1092020180FFA7
:1005E00005C080910201806480930201969590FF7E
:1005F00005C080910201806280930201969590FF70
:1006000005C080910201806180930201892F869547
:1006100080FF05C0809102018860809302010895E7
:100620001F93F89480E884B9109100021F5F80E85E
:1006300095E20E949500609108027091090289E498
:1006400092E00E94A900E0E840E951E0EBB960E0E7
:100650002AEF30E0CA010197F1F721503040D1F77D
:100660006F5F6436A9F715B860E02AEF30E0CA0181
:100670000197F1F721503040D1F76F5F6832A9F749
:100680001123F1F070E0E5B960E02AEF30E0CA0133
:100690000197F1F721503040D1F76F5F6A30A9F729
:1006A00015B860E02AEF30E0CA010197F1F7215058
:1006B0003040D1F76F5F6A30A9F77F5F711718F389
:1006C00060E02AEF30E0CA010197F1F72150304095
:1006D000D1F76F5F6431A9F7B9CF0F931F93CF9311
:1006E000DF93EC018B018091060290910702892B28
:1006F000A1F1209791F1A0910402B0910502A95FA8
:10070000BE4F8C91A750B140823089F1AD5FBE4F92
:1007100083E090E011969C938E93179611961C930C
:100720000E931E921E92A850B1408C819D81892B00
:1007300041F1EE81FF81E85FFE4FB183A083BF836B
:10074000AE838A819B8101969B838A830E942802C3
:10075000DF91CF911F910F9108958EE08093000259
:100760000E941003A0910402B0910502CFCF8FE048
:10077000809300020E941003A0910402B091050230
:10078000C5CFBD83AC83BF83AE83DBCF6F927F9237
:100790008F929F92AF92BF92CF92DF92EF92FF9291
:1007A0000F931F93CF93DF93EC014B0180910602CF
:1007B00090910702892B09F4CBC0209709F4C8C097
:1007C0008A819B81892B09F4CDC0AC81BD811097B2
:1007D00009F4CDC0FD01E85FFE4F808191819D83CA
:1007E0008C8311821082C0900402D0900502009187
:1007F000030E1091040E4091010E5091020E609173
:10080000070E7091080EE090050EF090060EAA24D7
:10081000BB24F2E06F2E712C87E091E0C80ED91E48
:10082000FD01ED5FFE4F808191810397C1F0DA01F8
:100830002C813D8121153105C9F1F901E85FFE4F99
:10084000808191819D838C8311821082AD01D901B9
:10085000FD01ED5FFE4F80819181039741F7A95F14
:10086000BE4F8C91A750B140833009F44DC0813008
:10087000F1F671826082A65FBE4FED91FC911197F7
:10088000918280821E921E92A850B140411551055E
:1008900009F478C0085F1E4FF801B183A0838D0171
:1008A000DA012C813D812115310539F61093040EB2
:1008B0000093030EB093020EA093010E7093080EE6
:1008C0006093070EF092060EE092050E1B821A82CC
:1008D000AB2859F01FB7F89486E090E09093EE0DA6
:1008E0008093ED0D0E942F011FBFDF91CF911F91CB
:1008F0000F91FF90EF90DF90CF90BF90AF909F90BF
:100900008F907F906F90089571826082A65FBE4F36
:10091000ED91FC911197AA50B14091828082F6012D
:100920008081833019F0E1E0AE2EB12CA85FBE4F7C
:1009300011961C921E92A850B140E114F104F1F0FE
:10094000685F7E4FFB01B183A083BD01DA0170CFE8
:100950008EE0809300020E9410038A819B81892B84
:1009600009F033CF80E1809300020E9410031092BF
:1009700000020E9410031B821A82B7CFBD017D01C5
:10098000DA0156CF8D0154CF209106023091070233
:10099000C9010196069748F08DE0809300020E94FD
:1009A00010032091060230910702F901EE0FFF1F9C
:1009B000EE0FFF1FEE0FFF1FEF5EFD4F1182108243
:1009C000D901AA0FBB1FAA0FBB1FAA0FBB1FAD5E89
:1009D000BD4F1D921C92D901AA0FBB1FAA0FBB1FAE
:1009E000AA0FBB1FAB5EBD4F1D921C9217821682D1
:1009F0002F5F3F4F3093070220930602CF010895E7
:100A0000CF93DF938091FD0D9091FE0D892B09F41A
:100A1000E0C08091F30D823009F475C080910A0224
:100A200090910B020196099708F07FC08091F30D19
:100A3000882309F055C0CBEDDCE0DE01A150BF4FAB
:100A4000FD01B897128280E880A313A28091EF0D78
:100A50009091F00D94A38091EF0D9091F00D85A3EE
:100A600016A28EE392E097A38C93C050DF4FF983D8
:100A7000E883239682E090E0899399938091F10D29
:100A80009091F20D899399938091F30D88838091D1
:100A9000F40D259788838091F50D9091F60D2A9697
:100AA000899399938091F70D9091F80D899399937B
:100AB0008091F90D9091FA0D99838883C051D140AE
:100AC0008091F30D823009F46EC0833009F44DC07B
:100AD000813089F121E030E0C901DF91CF910895A3
:100AE000C091FD0DD091FE0D209709F4A6CFFE0117
:100AF000E85FFE4F808191819093FE0D8093FD0D04
:100B0000118210829ACF2091F70D3091F80D8091CB
:100B1000F50D9091F60D2817390708F47FCF86E080
:100B2000809300020E94100381CF87E0809300022F
:100B30000E9410037BCFC85FDE4F19821882C85015
:100B4000D1408091010E9091020E892B09F452C080
:100B5000E091030EF091040EE85FFE4FD183C08355
:100B6000D093040EC093030EB5CFC85FDE4F198239
:100B70001882C850D1408091050E9091060E892BA5
:100B800071F1E091070EF091080EE85FFE4FD183FE
:100B9000C083D093080EC093070E21E030E0C90156
:100BA000DF91CF91089580910A0290910B02FC0190
:100BB000EE0FFF1FE75CFD4FD183C083019690933A
:100BC0000B0280930A0221E030E0C901DF91CF914E
:100BD000089520E030E0C901DF91CF910895D093CE
:100BE000060EC093050ED093080EC093070E21E0A9
:100BF00030E072CFD093020EC093010ED093040E5A
:100C0000C093030E21E030E067CF7F928F929F92D6
:100C1000AF92BF92CF92DF92EF92FF920F931F930A
:100C2000CF93DF9380918100826080938100EEE416
:100C3000F5E0A9E0BEE0118210821D921D92CF0165
:100C40000F9696838583EE5EFE4F3CE0EC3CF30707
:100C500091F7168215820BE414E01093FE0D0093B9
:100C6000FD0D89EC9BE09093000E8093FF0D84EDC9
:100C700090E09093F00D8093EF0D1092F30D8FE2C2
:100C800090E09093F20D8093F10D0E94000583E1B6
:100C900099E09093F00D8093EF0D83E08093F30D36
:100CA0000E940005109305020093040281E090E089
:100CB00090934F0580934E05E091050EF091060E3E
:100CC000309751F0E85FFE4F808191819093060E3E
:100CD0008093050E1182108280916F008260809354
:100CE0006F008091840090918500805F984D909373
:100CF00089008093880082E086BBE0900102F0903A
:100D00000202A0910402B091050201E0C02ED12C94
:100D100011E1912EF2E0AF2EB12CECE08E2E7AE0B4
:100D2000772E29C08130910509F4B8C0029708F4E4
:100D300079C00E9400059093FC0D8093FB0D80917B
:100D4000FB0D9091FC0D892B09F46CC08091F30D83
:100D5000833009F4C6C1A0910402B0910502A95FD5
:100D6000BE4F8C91A750B140813009F4AAC11092B6
:100D7000EE0D1092ED0DAD5FBE4F8D919C911197D0
:100D8000A350B140019709F452C02091050E309153
:100D9000060E2115310509F42BC1F901E85FFE4F5C
:100DA000808191819093060E8093050E11821082AE
:100DB0003093050220930402E0910402F0910502B1
:100DC000ED5FFE4FC192D1922081809108029091F7
:100DD000090232E08030930750F4FC01E75BFD4FDD
:100DE000205D2083019690930902809308020E945F
:100DF000D5008091ED0D9091EE0D83309105D9F0E5
:100E00008430910508F48ECF8530910559F08530F6
:100E1000910508F4D0C0069709F4BEC08092000284
:100E20000E941003A0910402B0910502A0CFAE155C
:100E3000BF05E9F6AACFA0910402B0910502EA1617
:100E4000FB0609F494CFAD5FBE4F11961C921E9223
:100E500014968C91A750B140823009F420C1A85F4C
:100E6000BE4F11961C921E92A850B1408091FD0D6C
:100E70009091FE0D892B09F448C1E091FF0DF0918E
:100E8000000EE85FFE4FB183A083B093000EA093E5
:100E9000FF0DA0910402B091050269CF60910A0292
:100EA00070910B02AB016115710509F468C0809166
:100EB0000C02815080930C0280910C02882309F06F
:100EC000FBC0A0910402B0910502109741F0A95F08
:100ED000BE4F8C91A750B140823009F444C0BA0192
:100EE000C9E3D2E020E030E0E991F991E05FFE4F04
:100EF000808191810197918380832F5F3F4F2617D7
:100F0000370790F3A95FBE4F8C91A750B140813055
:100F100009F02DCFFD01ED5FFE4F8081918101979A
:100F200009F025CFB182A082A85FBE4F11961C9216
:100F30001E92A850B1408091010E9091020E892B13
:100F400009F448C1E091030EF091040EE85FFE4FF2
:100F5000B183A083B093040EA093030EA09104026A
:100F6000B091050204CF709200020E9410036091BC
:100F70000A0270910B026115710509F09DC0A091E4
:100F80000402B0910502A95FBE4F8C91A750B140F9
:100F9000813009F0ECCEBECFA0910402B0910502E1
:100FA000A95FBE4F8C91A750B140833009F4DFCECA
:100FB00010920C02DCCEA0910402B0910502ED016A
:100FC000CD5FDE4F88819981019709F0D0CEA95F6E
:100FD000BE4F8C91A750B140823009F4F0C08330ED
:100FE00009F4D3C0813009F4B5C0B982A882BFCE5C
:100FF00040910A0250910B024115510509F492C02B
:10100000C9E3D2E000E010E020E030E008C0D90100
:101010000F5F1F4F229604171507F8F49D01A88152
:10102000B981A05FBE4F8D919C911197A051B140A5
:101030001816190664F3232B59F3909200020E94AC
:101040001003A881B98140910A0250910B020F5FF1
:101050001F4F22960417150708F3109709F462C072
:10106000B0930502A0930402FD01E05FFE4FA45F70
:10107000BE4F808191812D913C911197AC50B14030
:10108000820F931F9183808380910C02882309F043
:1010900093CEA25FBE4F8C9180930C028DCEAE5F3B
:1010A000BE4FEC91A250B140F0E0EE0FFF1FE75FA2
:1010B000F14F11821082D3CEA0910402B0910502AB
:1010C0000FCF8091F30D823009F47CC0AD5FBE4F2D
:1010D0008D919C911197A350B140029709F047CE92
:1010E00023CFA0910402B0910502A95FBE4F8C915D
:1010F000A750B140833009F43ACEAD5FBE4F119690
:10110000BC92AE92A350B1402ACEB093FE0DA093F4
:10111000FD0DB093000EA093FF0DA0910402B091BD
:10112000050225CE2091010E3091020E21153105C8
:1011300009F45DC0F901E85FFE4F808191819093D1
:10114000020E8093010E11821082309305022093CB
:10115000040232CEA85FBE4F11961C921E92A85078
:10116000B1408091010E9091020E892B09F444C088
:10117000E091030EF091040EE85FFE4FB183A0836F
:10118000B093040EA093030E30CFA85FBE4F11960C
:101190001C921E92A850B1408091050E9091060EAF
:1011A000892B99F1E091070EF091080EE85FFE4F50
:1011B000B183A083B093080EA093070E16CF1092B0
:1011C0000C0213CFAD5FBE4F1196BC92AE92A350EE
:1011D000B140AACEB093020EA093010EB093040EBC
:1011E000A093030EA0910402B0910502C0CDF0922D
:1011F0000502E0920402E0CDB093020EA093010E2E
:10120000B093040EA093030EF0CEB093060EA093FD
:10121000050EB093080EA093070EE7CE0E940506B8
:1012200080E090E008950F931F93279A0E94DC02BC
:1012300015B80E94C40490931E0E80931D0E109248
:101240009000E1E9F0E010828081886080838081F5
:10125000846080838FEF92E290939900809398004E
:10126000E1E7F0E080818260808310929500109227
:10127000940087E999E062E070E00E94BF0284E98F
:1012800099E062E070E044E650E022E330E000EDF7
:1012900017E00E94750280E090E01F910F91089581
:1012A0001F920F920FB60F920BB60F9211242F932D
:1012B0003F934F935F936F937F938F939F93AF93DE
:1012C000BF93EF93FF9360911B0E70911C0E6031E2
:1012D000710534F010921C0E10921B0E60E070E04D
:1012E00085B1805885B980911D0E90911E0E6F5F5B
:1012F0007F4F70931C0E60931B0E615070400E94D4
:10130000C603FF91EF91BF91AF919F918F917F9114
:101310006F915F914F913F912F910F900BBE0F9066
:101320000FBE0F901F9018950E941003FDCF0F93D2
:101330001F93DF93CF930F920F92CDB7DEB71A8230
:1013400019828E010F5F1F4F80911D0E90911E0E0E
:10135000B8010E946D0389810E94EC02F5CFAA1B9F
:10136000BB1B51E107C0AA1FBB1FA617B70710F090
:10137000A61BB70B881F991F5A95A9F780959095C2
:0A138000BC01CD010895F894FFCFE1
:04138A0008DB0C0070
:00000001FF
